{
  "contractName": "LoanContractManager",
  "abi": [
    {
      "inputs": [],
      "stateMutability": "nonpayable",
      "type": "constructor"
    },
    {
      "anonymous": false,
      "inputs": [
        {
          "indexed": false,
          "internalType": "string",
          "name": "loanId",
          "type": "string"
        }
      ],
      "name": "LoanContractActivated",
      "type": "event"
    },
    {
      "anonymous": false,
      "inputs": [
        {
          "indexed": false,
          "internalType": "string",
          "name": "loanId",
          "type": "string"
        }
      ],
      "name": "LoanContractAdded",
      "type": "event"
    },
    {
      "anonymous": false,
      "inputs": [
        {
          "indexed": false,
          "internalType": "string",
          "name": "loanId",
          "type": "string"
        }
      ],
      "name": "LoanContractApproved",
      "type": "event"
    },
    {
      "anonymous": false,
      "inputs": [
        {
          "indexed": false,
          "internalType": "string",
          "name": "loanId",
          "type": "string"
        }
      ],
      "name": "LoanContractRejected",
      "type": "event"
    },
    {
      "inputs": [
        {
          "components": [
            {
              "internalType": "string",
              "name": "loanId",
              "type": "string"
            },
            {
              "internalType": "enum Types.LoanContractStatus",
              "name": "status",
              "type": "uint8"
            },
            {
              "internalType": "string",
              "name": "borrowerId",
              "type": "string"
            },
            {
              "internalType": "string",
              "name": "lenderId",
              "type": "string"
            },
            {
              "internalType": "address",
              "name": "borrower",
              "type": "address"
            },
            {
              "internalType": "address",
              "name": "lender",
              "type": "address"
            },
            {
              "internalType": "string",
              "name": "lenderBankCardNo",
              "type": "string"
            },
            {
              "internalType": "string",
              "name": "borrowerBankCardNo",
              "type": "string"
            },
            {
              "internalType": "uint256",
              "name": "amount",
              "type": "uint256"
            },
            {
              "internalType": "uint256",
              "name": "interest",
              "type": "uint256"
            },
            {
              "internalType": "uint256",
              "name": "overdueInterest",
              "type": "uint256"
            },
            {
              "internalType": "uint256",
              "name": "tenureInMonths",
              "type": "uint256"
            },
            {
              "internalType": "uint256",
              "name": "startDate",
              "type": "uint256"
            }
          ],
          "internalType": "struct Types.LoanContract",
          "name": "newLoanContract",
          "type": "tuple"
        }
      ],
      "name": "addLoanContract",
      "outputs": [],
      "stateMutability": "nonpayable",
      "type": "function"
    },
    {
      "inputs": [
        {
          "internalType": "string",
          "name": "loanId",
          "type": "string"
        }
      ],
      "name": "approveLoanContract",
      "outputs": [],
      "stateMutability": "nonpayable",
      "type": "function"
    },
    {
      "inputs": [
        {
          "internalType": "string",
          "name": "loanId",
          "type": "string"
        }
      ],
      "name": "rejectLoanContract",
      "outputs": [],
      "stateMutability": "nonpayable",
      "type": "function"
    },
    {
      "inputs": [
        {
          "internalType": "string",
          "name": "loanId",
          "type": "string"
        }
      ],
      "name": "activateLoanContract",
      "outputs": [],
      "stateMutability": "nonpayable",
      "type": "function"
    },
    {
      "inputs": [
        {
          "internalType": "string",
          "name": "loanId",
          "type": "string"
        }
      ],
      "name": "loanContractExists",
      "outputs": [
        {
          "internalType": "bool",
          "name": "",
          "type": "bool"
        }
      ],
      "stateMutability": "view",
      "type": "function",
      "constant": true
    },
    {
      "inputs": [
        {
          "internalType": "string",
          "name": "loanId",
          "type": "string"
        }
      ],
      "name": "getLoanContractById",
      "outputs": [
        {
          "components": [
            {
              "internalType": "string",
              "name": "loanId",
              "type": "string"
            },
            {
              "internalType": "enum Types.LoanContractStatus",
              "name": "status",
              "type": "uint8"
            },
            {
              "internalType": "string",
              "name": "borrowerId",
              "type": "string"
            },
            {
              "internalType": "string",
              "name": "lenderId",
              "type": "string"
            },
            {
              "internalType": "address",
              "name": "borrower",
              "type": "address"
            },
            {
              "internalType": "address",
              "name": "lender",
              "type": "address"
            },
            {
              "internalType": "string",
              "name": "lenderBankCardNo",
              "type": "string"
            },
            {
              "internalType": "string",
              "name": "borrowerBankCardNo",
              "type": "string"
            },
            {
              "internalType": "uint256",
              "name": "amount",
              "type": "uint256"
            },
            {
              "internalType": "uint256",
              "name": "interest",
              "type": "uint256"
            },
            {
              "internalType": "uint256",
              "name": "overdueInterest",
              "type": "uint256"
            },
            {
              "internalType": "uint256",
              "name": "tenureInMonths",
              "type": "uint256"
            },
            {
              "internalType": "uint256",
              "name": "startDate",
              "type": "uint256"
            }
          ],
          "internalType": "struct Types.LoanContract",
          "name": "",
          "type": "tuple"
        }
      ],
      "stateMutability": "view",
      "type": "function",
      "constant": true
    },
    {
      "inputs": [],
      "name": "getAllLoanContracts",
      "outputs": [
        {
          "components": [
            {
              "internalType": "string",
              "name": "loanId",
              "type": "string"
            },
            {
              "internalType": "enum Types.LoanContractStatus",
              "name": "status",
              "type": "uint8"
            },
            {
              "internalType": "string",
              "name": "borrowerId",
              "type": "string"
            },
            {
              "internalType": "string",
              "name": "lenderId",
              "type": "string"
            },
            {
              "internalType": "address",
              "name": "borrower",
              "type": "address"
            },
            {
              "internalType": "address",
              "name": "lender",
              "type": "address"
            },
            {
              "internalType": "string",
              "name": "lenderBankCardNo",
              "type": "string"
            },
            {
              "internalType": "string",
              "name": "borrowerBankCardNo",
              "type": "string"
            },
            {
              "internalType": "uint256",
              "name": "amount",
              "type": "uint256"
            },
            {
              "internalType": "uint256",
              "name": "interest",
              "type": "uint256"
            },
            {
              "internalType": "uint256",
              "name": "overdueInterest",
              "type": "uint256"
            },
            {
              "internalType": "uint256",
              "name": "tenureInMonths",
              "type": "uint256"
            },
            {
              "internalType": "uint256",
              "name": "startDate",
              "type": "uint256"
            }
          ],
          "internalType": "struct Types.LoanContract[]",
          "name": "",
          "type": "tuple[]"
        }
      ],
      "stateMutability": "view",
      "type": "function",
      "constant": true
    }
  ],
  "bytecode": "0x608080604052346100285760028054600160a060020a031916331790556112df908161002e8239f35b600080fdfe6080604052600436101561001257600080fd5b7c0100000000000000000000000000000000000000000000000000000000600035048063561deab414610ac65780636045abf11461093a57806361bbfeb2146107e057806365665dbf1461079b578063b4a41b5514610630578063c6dda45b146104305763dc672a1c1461008557600080fd5b3461042b5760031960203682011261042b576004359067ffffffffffffffff9081831161042b576101a090833603011261042b57604051916100c683610c14565b806004013582811161042b576100e29060043691840101610c53565b83526024810135600481101561042b576020840152604481013582811161042b576101139060043691840101610c53565b6040840152606481013582811161042b576101349060043691840101610c53565b606084015261014560848201610dca565b608084015261015660a48201610dca565b60a084015260c481013582811161042b576101779060043691840101610c53565b60c084015260e481013591821161042b5761019b6101849260043691840101610c53565b60e084015261010481013561010084015261012481013561012084015261014481013561014084015261016481013561016084015201356101808201526101ee600160a060020a03600254163314610dde565b8051906101fa826110f5565b6103be5760405160208184516102138183858901610caa565b8101600081520301902090610229815183610e90565b602081015160048110156103a557600c916101809160ff80196001870154169116176001850155610261604082015160028601610e90565b610272606082015160038601610e90565b60048401600160a060020a0360808301511690600160a060020a031991828254161790556005850190600160a060020a0360a084015116908254161790556102c160c082015160068601610e90565b6102d260e082015160078601610e90565b61010081015160088501556101208101516009850155610140810151600a850155610160810151600b85015501519101556001546801000000000000000081101561038c578060016103279201600155610fae565b610373578161035a7f7532ad76a1cfd10f0614378be5575e1167975e8dd6e7d60903f77178afd8506a9361036e93610e90565b604051918291602083526020830190610ccd565b0390a1005b60e060020a634e487b7102600052600060045260246000fd5b60e060020a634e487b7102600052604160045260246000fd5b60e060020a634e487b7102600052602160045260246000fd5b608460405160e560020a62461bcd02815260206004820152602d60248201527f4c6f616e20636f6e74726163742077697468207468652073616d65204944206160448201527f6c726561647920657869737473000000000000000000000000000000000000006064820152fd5b600080fd5b3461042b57600036600319011261042b576001805461044e8161127e565b9161045c6040519384610c31565b8183526104688261127e565b60209290601f190160005b81811061061457505060005b8181106104e657505060405191808301818452845180915260408401918060408184028701019601926000905b8382106104b95786880387f35b909192939483806104d5839a603f198b82030186528951610cf2565b9997019594939190910191016104ac565b610503846104f683979597610fae565b5060405192838092611072565b60008152030190206040519061051882610c14565b610521816111db565b825260ff87820154169060048210156103a557600c9187840152610547600282016111db565b6040840152610558600382016111db565b6060840152600160a060020a0380600483015416608085015260058201541660a0840152610588600682016111db565b60c0840152610599600782016111db565b60e084015260088101546101008401526009810154610120840152600a810154610140840152600b81015461016084015201546101808201526105dc8285611296565b526105e78184611296565b5060001981146105fb57840193919361047f565b60e060020a634e487b7102600052601160045260246000fd5b8490610621969496611179565b82828701015201949294610473565b3461042b5760208060031936011261042b5760043567ffffffffffffffff811161042b57610662903690600401610c53565b60405161069a600160a060020a03600584519386818188019661068681838a610caa565b810160008152030190200154163314610ffe565b60ff6001604051858186516106b0818389610caa565b8101600081520301902001541660048110156103a55760020361072e57916001610707827f90dc44a12153c5379033829dea669821497d369c5d2a9c33bf2478ea66a06d8195604051809381928851928391610caa565b810160008152030190200160ff19815416905561036e604051928284938452830190610ccd565b6084836040519060e560020a62461bcd0282526004820152603660248201527f4c6f616e20636f6e7472616374206d75737420626520696e2070656e64696e6760448201527f2073746174757320746f20626520617070726f766564000000000000000000006064820152fd5b3461042b57602036600319011261042b5760043567ffffffffffffffff811161042b576107d66107d16020923690600401610c53565b6110f5565b6040519015158152f35b3461042b5760208060031936011261042b5760043567ffffffffffffffff811161042b57610812903690600401610c53565b604051610836600160a060020a03600584519386818188019661068681838a610caa565b60ff60016040518581865161084c818389610caa565b8101600081520301902001541660048110156103a5576002036108cd579160016108a3827f3ff177d09b31d3086a4a408c1591a7e0f6ca834c3d5bc158b0274a9f8fa3b3df95604051809381928851928391610caa565b8101600081520301902001600160ff1982541617905561036e604051928284938452830190610ccd565b6084836040519060e560020a62461bcd0282526004820152603660248201527f4c6f616e20636f6e7472616374206d75737420626520696e2070656e64696e6760448201527f2073746174757320746f2062652072656a6563746564000000000000000000006064820152fd5b3461042b5760208060031936011261042b5760043567ffffffffffffffff811161042b5761096c903690600401610c53565b610974611179565b50805115610a7f5781610994918160405193828580945193849201610caa565b8101600081520301902090604051916109ac83610c14565b6109b5816111db565b835260ff6001820154169060048210156103a557600c91838501526109dc600282016111db565b60408501526109ed600382016111db565b6060850152600160a060020a0380600483015416608086015260058201541660a0850152610a1d600682016111db565b60c0850152610a2e600782016111db565b60e085015260088101546101008501526009810154610120850152600a810154610140850152600b8101546101608501520154610180830152610a7b604051928284938452830190610cf2565b0390f35b6064826040519060e560020a62461bcd0282526004820152601360248201527f4c6f616e204944206973207265717569726564000000000000000000000000006044820152fd5b3461042b5760208060031936011261042b5760043567ffffffffffffffff811161042b57610af8903690600401610c53565b610b0e600160a060020a03600254163314610dde565b60405160ff6001835192858181870195610b29818389610caa565b8101600081520301902001541660048110156103a557610ba757916001610b7d827fc5f553f08c0f5a1fc7329a135c5d0c7134b6181205f26aa523a4473d4af7428395604051809381928851928391610caa565b8101600081520301902001600360ff1982541617905561036e604051928284938452830190610ccd565b6084836040519060e560020a62461bcd0282526004820152602e60248201527f4c6f616e20636f6e7472616374206d75737420626520617070726f766564207460448201527f6f206265206163746976617465640000000000000000000000000000000000006064820152fd5b6101a0810190811067ffffffffffffffff82111761038c57604052565b90601f8019910116810190811067ffffffffffffffff82111761038c57604052565b81601f8201121561042b5780359067ffffffffffffffff821161038c5760405192610c88601f8401601f191660200185610c31565b8284526020838301011161042b57816000926020809301838601378301015290565b60005b838110610cbd5750506000910152565b8181015183820152602001610cad565b90602091610ce681518092818552858086019101610caa565b601f01601f1916010190565b90610d076101a0835190808452830190610ccd565b602083015160048110156103a557610d4c610d3a610d9093610d7e93602087015260408701518682036040880152610ccd565b60608601518582036060870152610ccd565b6080850151600160a060020a03809116608086015260a08601511660a085015260c085015184820360c0860152610ccd565b60e084015183820360e0850152610ccd565b9161010080820151908301526101208082015190830152610140808201519083015261016080820151908301526101808091015191015290565b3590600160a060020a038216820361042b57565b15610de557565b608460405160e560020a62461bcd02815260206004820152602160248201527f4f6e6c79206f776e65722063616e2063616c6c20746869732066756e6374696f60448201527f6e000000000000000000000000000000000000000000000000000000000000006064820152fd5b9060016002830492168015610e86575b6020831014610e6d57565b60e060020a634e487b7102600052602260045260246000fd5b91607f1691610e62565b9080519067ffffffffffffffff821161038c578190610eaf8454610e52565b601f8111610f5a575b5060209081601f8411600114610ef45750600092610ee9575b5050816002029160080260020a600019041916179055565b015190503880610ed1565b60008681528181209450601f198616915b828210610f425750509160029391856001969410610f27575b50505002019055565b01516008601f841602840a6000190419169055388080610f1e565b80600186978294978701518155019601940190610f05565b9091506000848152602081206020601f86010481019260208610610fa4575b906020601f8796959493010401915b828110610f96575050610eb8565b818155859450600101610f88565b9092508290610f79565b600154811015610fe55760016000527fb10e2d527612073b26eecdfd717e6a320cf44b4afac2b0732d9fcbe2b7fa0cf60190600090565b60e060020a634e487b7102600052603260045260246000fd5b1561100557565b608460405160e560020a62461bcd02815260206004820152602260248201527f4f6e6c79206c656e6465722063616e2063616c6c20746869732066756e63746960448201527f6f6e0000000000000000000000000000000000000000000000000000000000006064820152fd5b60009291815461108181610e52565b926001918083169081156110da575060011461109e575b50505050565b90919293945060005260209081600020906000915b8583106110c95750505050019038808080611098565b8054858401529183019181016110b3565b60ff1916845250505081151590910201915038808080611098565b6040518151906020818185019361110d818387610caa565b8101600081520301902060405161113a8161112c602082018095611072565b03601f198101835282610c31565b519020916111676020604051809361115a83830196879251928391610caa565b8101038084520182610c31565b5190200361117457600190565b600090565b6040519061118682610c14565b8161018060609182815260009283602083015280604083015280808301528360808301528360a08301528060c083015260e0820152826101008201528261012082015282610140820152826101608201520152565b906040519182600082546111ee81610e52565b90818452602094600191828116908160001461125d575060011461121e575b50505061121c92500383610c31565b565b600090815285812095935091905b81831061124557505061121c935082010138808061120d565b8554888401850152948501948794509183019161122c565b9250505061121c94925060ff1916828401521515810282010138808061120d565b67ffffffffffffffff811161038c5760208091020190565b8051821015610fe557602080920201019056fea2646970667358221220efc6681d33b445b105560a3f5c6df4e116e56b7af3ce9b0ce943a55fd0279b2764736f6c63430008150033",
  "immutableReferences": {},
  "source": "// SPDX-License-Identifier: GPL-3.0\r\npragma solidity >=0.4.16 <0.9.0;\r\nimport \"./Types.sol\"; \r\n\r\ncontract LoanContractManager {\r\n\r\n    mapping(string => Types.LoanContract) internal loanContracts;\r\n    string[] private loanIds;\r\n\r\n    address private owner;\r\n\r\n    modifier onlyOwner() {\r\n        require(msg.sender == owner, \"Only owner can call this function\");\r\n        _;\r\n    }\r\n\r\n    modifier onlyLender(string memory loanId) {\r\n        require(\r\n            msg.sender == loanContracts[loanId].lender,\r\n            \"Only lender can call this function\"\r\n        );\r\n        _;\r\n    }\r\n\r\n    event LoanContractAdded(string loanId);\r\n    event LoanContractApproved(string loanId);\r\n    event LoanContractRejected(string loanId);\r\n    event LoanContractActivated(string loanId);\r\n\r\n    constructor() {\r\n        owner = msg.sender;\r\n    }\r\n\r\n    function addLoanContract(\r\nTypes.LoanContract memory newLoanContract\r\n    ) public onlyOwner {\r\n        string memory loanId = newLoanContract.loanId;\r\n        require(\r\n            !loanContractExists(loanId),\r\n            \"Loan contract with the same ID already exists\"\r\n        );\r\n        loanContracts[loanId] = newLoanContract;\r\n        loanIds.push(loanId);\r\n        emit LoanContractAdded(loanId);\r\n    }\r\n\r\n    function approveLoanContract(\r\n        string memory loanId\r\n    ) public onlyLender(loanId) {\r\n        require(\r\n            loanContracts[loanId].status == Types.LoanContractStatus.Pending,\r\n            \"Loan contract must be in pending status to be approved\"\r\n        );\r\n        loanContracts[loanId].status = Types.LoanContractStatus.Approved;\r\n        emit LoanContractApproved(loanId);\r\n    }\r\n\r\n    function rejectLoanContract(\r\n        string memory loanId\r\n    ) public onlyLender(loanId) {\r\n        require(\r\n            loanContracts[loanId].status == Types.LoanContractStatus.Pending,\r\n            \"Loan contract must be in pending status to be rejected\"\r\n        );\r\n        loanContracts[loanId].status = Types.LoanContractStatus.Rejected;\r\n        emit LoanContractRejected(loanId);\r\n    }\r\n\r\n    function activateLoanContract(string memory loanId) public onlyOwner {\r\n        require(\r\n            loanContracts[loanId].status == Types.LoanContractStatus.Approved,\r\n            \"Loan contract must be approved to be activated\"\r\n        );\r\n        loanContracts[loanId].status = Types.LoanContractStatus.Active;\r\n        emit LoanContractActivated(loanId);\r\n    }\r\n\r\n    function loanContractExists(\r\n        string memory loanId\r\n    ) public view returns (bool) {\r\n        if (keccak256(abi.encodePacked(loanContracts[loanId].loanId)) == keccak256(abi.encodePacked(loanId))) {\r\n            return true;\r\n        } else {\r\n            return false;\r\n        }\r\n    }\r\n\r\n    function getLoanContractById(\r\n        string memory loanId\r\n    ) public view returns (Types.LoanContract memory) {\r\n        require(bytes(loanId).length > 0, \"Loan ID is required\");\r\n\r\n        return loanContracts[loanId];\r\n    }\r\n\r\n    function getAllLoanContracts() public view returns (Types.LoanContract[] memory) {\r\n        Types.LoanContract[] memory allContracts = new Types.LoanContract[](loanIds.length);\r\n        for (uint i = 0; i < loanIds.length; i++) {\r\n            allContracts[i] = loanContracts[loanIds[i]];\r\n        }\r\n        return allContracts;\r\n    }\r\n}\r\n",
  "sourcePath": "C:\\Users\\nhath\\Desktop\\88credit_microservices\\88credit_server\\blockchain\\contracts\\LoanContractManager.sol",
  "compiler": {
    "name": "solc",
    "version": "0.8.21+commit.d9974bed.Emscripten.clang"
  },
  "schemaVersion": "3.4.16",
  "updatedAt": "2024-06-12T21:32:10.225Z",
  "networkType": "ethereum",
  "devdoc": {
    "kind": "dev",
    "methods": {},
    "version": 1
  },
  "userdoc": {
    "kind": "user",
    "methods": {},
    "version": 1
  }
}